:1008F0003F065B4F666D7D077F6F777C395E797150
:10090000004080761E7038375C733E783D67503704
:0C0910006EBF86DBCFE6EDFD87FFEF46F3
:0D09AF00E4F5C7F5C5F5C675C380F5C42293
:10088C00E4F51A120938E4FFFE1207C18E168F1711
:06089C00C2057F027E0090
:1008A20075C78075F50C75C5018FC4EEFF8FC375D2
:0C08B200C65A75C6A50000AFC20209AF0F
:0407C100AD07AC06CE
:1007C50075C78075F50C75C5018DC4ECFF8FC375B4
:1007D500C65A75C6A50000ABC20DBD00010C8DC47F
:1007E500ECFF8FC375C65A75C6A50000AFC21209C6
:1007F500AFE4FDAE03EB2DFDE433FCEFFEE42DFD90
:05080500EE3CFEAF0512
:01080A0022CB
:10091C0075C78075F50C75C5028FC4EEFF8FC38D3E
:0C092C00C275C65A75C6A500000209AFCE
:04084F00AB07AA0643
:10085300AF05A907AF04AD0775C78075F50C75C55E
:10086300028BC4EAFF8FC389C275C65A75C6A50039
:10087300000BBB00010A8BC4EAFF8FC38DC275C690
:090883005A75C6A500000209AF78
:10096E0075C78075F50C75C5038FC4EEFF8FC37503
:09097E00C65A75C6A5000209AFB6
:10093800E4FFFE12096EAD17AC16E4FF12084FE48F
:0C094800FD3005010D7F027E0002091C3D
:0300D300020571B2
:10057100C0E0C0F0C083C082C0D075D000C000C050
:1005810001C002C003C004C005C006C00790FEC57B
:10059100E030E143E054FDF090FED5E4F0A3F0E556
:1005A10018D3940A402A75180130050CD203E515B9
:1005B100151570191514801520030A0515E5157018
:1005C1000C05148008E5151515700215141200DECE
:1005D10090FECEE4F0A3F090FED5E4F0A3F090FEFF
:1005E100C5F0D007D006D005D004D003D002D00189
:0D05F100D000D0D0D082D083D0F0D0E03246
:0300DB000205FE1D
:1005FE00C0E0C0F0C083C082C0D075D000C000C0C3
:10060E0001C002C003C004C005C006C00790FEE5CD
:10061E00E030E240E4F090FED5F0A3F0E518D3947C
:10062E000A402A75180130050CC2030515E5157030
:10063E00190514801520030A0515E515700C05140F
:10064E008008E5151515700215141200DE90FECE09
:10065E00E4F0A3F090FED5E4F0A3F090FEE5F0D028
:10066E0007D006D005D004D003D002D001D000D0E0
:0A067E00D0D082D083D0F0D0E0325B
:1000030075940F75930F7592FFE4F5917596C0750E
:1000130095C0F5B2F5B1F5CAF5C953BA7FF519F52F
:100023001AF514F515F516F517FFFE1207C18E160E
:100033008F17C20312089CEF30E002D205E4F510DB
:10004300F511F512F518F51BF5131200DE43BA800E
:1000530090FEB2E4F0E04401F090FEB6E4F0E0F08C
:1000630090FECCE4F0A3F090FEECF0A3F090FEC879
:10007300F0E04401F0E044F0F090FEE8E4F0A3F097
:10008300E04401F0E044F0F090FECCE04401F0E005
:100093004402F090FEECE04410F0E04420F090FEC7
:1000A300C0E04401F090FEE0E04401F090FEC4742F
:1000B30002F090FEE4E04404F0D2AF7F0112099F06
:0800C30012031E12068880F3EF
:0F099F007D607C09ED1D70011C144C70F7DFF1B9
:0109AE002226
:10075B00E51A7004C203805BE51A64017047E51B60
:10076B00700A0517E517704B05168047E51BB4019A
:10077B0004740A8007E51BB4020974642517F51786
:10078B00E4801CE51BB4030A74E82517F517740302
:10079B00800DE51BB4041C74102517F51774273551
:1007AB0016F516800EE51AB40209200504D2058051
:0607BB0002C2050200DE8F
:1006F400E51A7004D203805CE51A64017048E51BB6
:10070400700AE5171517704C15168048E51BB401DF
:100714000474F68007E51BB4020A749C2517F517C8
:1007240074FF801CE51BB4030A74182517F51774AD
:10073400FC800DE51BB4041C74F02517F51774D860
:100744003516F516800EE51AB40209200504D20503
:070754008002C2050200DE75
:1008BE00E51A700AC203F514F515F51B8021E51A29
:1008CE00B4010E051BE51BC394054013E4F51B8014
:1008DE000EE51AB4020912088CEF30E002D20502BE
:0208EE0000DE2A
:0300CB000200DE52
:0300CE000200DE4F
:10098700E4F51B051AE51AC39403400912088CEF16
:0809970030E002D2050200DE8F
:10031E00C209C20AC20BC206C207C208A2B4920C1C
:10032E00A2B5920EA2CC9201E518C3940F5002050D
:10033E0018A20D300C01B340047F0180027F002013
:10034E000C047E0180027E00EF5E602C0510E5102D
:10035E00D3940A4026E510940C5007D20975100D5F
:10036E008019E510D394FA4012E51094FC5004D293
:10037E000680007510FD8003E4F510A200300E011A
:10038E00B340047F0180027F00200E047E018002B4
:10039E007E00EF5E602C0511E511D3940A4026E530
:1003AE0011940E5007D20A75110F8019E511D394CE
:1003BE00FA4012E51194FC5004D20780007511FD2D
:1003CE008003E4F511A202300101B340047F0180E5
:1003DE00027F002001047E0180027E00EF5E602C11
:1003EE000512E512D3940A4026E512940E5007D258
:1003FE000B75120F8019E512D394FA4012E5129480
:10040E00FC5004D20880007512FD8003E4F5123012
:10041E00090312075B300A031208BE300B031206E3
:10042E00F43006031200CB3007031209873008039D
:10043E001200CEA20C920DA20E9200A201920222E6
:100688000519E519C394064016E4F5190513E51391
:10069800941E4008E4F513B2041200DE120954D285
:1006A800A6D2A7D280D283D282D281E519700685DC
:1006B8000890C2A622E519B40106850990C2A722AE
:1006C800E519B40206850A90C28022E519B403062A
:1006D800850B90C28322E519B40406850C90C2826A
:0C06E80022E519B40505850D90C28122A1
:10095400E51745166011C3E5159517E5149516407E
:0A09640003C2A222D2A222D2A222D4
:1000DE00E51A640160030201DAAE16AF17FC7D0A61
:1000EE0012044E8D08E5089008F093F508AE16AF91
:1000FE00177C007D6412044E7E007F0ACFCDCFCEDA
:10010E00CCCE12044E8F09EF93F509AE16AF177CC5
:10011E00037DE812044E7E007F64CFCDCFCECCCED1
:10012E0012044E8F0AEF93F50AAE16AF177C277D99
:10013E001012044E7E037FE8CFCDCFCECCCE12046C
:10014E004E8F0BEF93F50BAE16AF17E4FCFD7BA0B5
:10015E007A867901F812080BAC00AD01AE02AF033E
:10016E00E47B107A27F9F812080B8F0CEF9008F049
:10017E0093F50C9008FCE493F50D300507900902F9
:10018E00E493420D30040302031DE51B7007900932
:10019E000093F50822E51BB40108900900E493F5DD
:1001AE000922E51BB40208900900E493F50A22E542
:1001BE001BB40308900900E493F50B22E51B6404BD
:1001CE00600302031D90090093F50C22E51A6402E8
:1001DE00600302026130053E20040E90090093F583
:1001EE0008F509F50AF50B801C900908E493F5084B
:1001FE0090090BE493F50990090AE493F50A900827
:10020E00FAE493F50B900900E493F50C9008FDE4E5
:10021E0093F50D02031620040F900900E493F508E0
:10022E00F509F50AF50B801C90090AE493F5089080
:10023E000907E493F5099008FAE493F50A90090F7B
:10024E00E493F50B900900E493F50C9008FDE4930C
:10025E00F50D22AE14AF157C007D0A12044E8D08EA
:10026E00E5089008F093F508AE14AF157C007D6498
:10027E0012044E7E007F0ACFCDCFCECCCE12044ECE
:10028E008F09EF93F509AE14AF157C037DE81204C8
:10029E004E7E007F64CFCDCFCECCCE12044E8F0AD1
:1002AE00EF93F50AAE14AF157C277D1012044E7E27
:1002BE00037FE8CFCDCFCECCCE12044E8F0BEF9373
:1002CE00F50BAE14AF15E4FCFD7BA07A867901F830
:1002DE0012080BAC00AD01AE02AF03E47B107A271F
:1002EE00F9F812080B8F0CEF9008F093F50C200420
:1002FE0005900900800B20030590090980039009E1
:10030E0007E493F50D300507900902E493420D22A0
:030000000209BC36
:0C09BC00787FE4F6D8FD7581210200036D
:10044E00BC000BBE0029EF8DF084FFADF022E4CC92
:10045E00F875F008EF2FFFEE33FEEC33FCEE9DEC5B
:10046E00984005FCEE9DFE0FD5F0E9E4CEFD22EDA1
:10047E00F8F5F0EE8420D21CFEADF075F008EF2FEB
:10048E00FFED33FD4007985006D5F0F222C398FDDC
:05049E000FD5F0EA2279
:10080B00C2D5E830E70FB2D5E4C39BFBE49AFAE418
:10081B0099F9E498F8EC30E717B2D51208411204B5
:10082B00DFE4C39BFBE49AFAE499F9E498F88003BC
:10083B001204DF30D50DE4C39FFFE49EFEE49DFD63
:04084B00E49CFC220B
:1004A30075F008758200EF2FFFEE33FECD33CDCC10
:1004B30033CCC58233C5829BED9AEC99E582984093
:1004C3000CF582EE9BFEED9AFDEC99FC0FD5F0D670
:1004D300E4CEFBE4CDFAE4CCF9A88222B800C1B99A
:1004E3000059BA002DEC8BF084CFCECDFCE5F0CBD8
:1004F300F97818EF2FFFEE33FEED33FDEC33FCEB11
:1005030033FB10D703994004EB99FB0FD8E5E4F9CB
:10051300FA227818EF2FFFEE33FEED33FDEC33FCB8
:10052300C933C910D7059BE99A4007EC9BFCE99AAC
:10053300F90FD8E0E4C9FAE4CCFB2275F010EF2FF1
:10054300FFEE33FEED33FDCC33CCC833C810D707F1
:100553009BEC9AE899400AED9BFDEC9AFCE899F82C
:0E0563000FD5F0DAE4CDFBE4CCFAE4C8F922BF
:00000001FF
